:020000040800F2
:1000000000500020152C0008492900085529000837
:100010005D290008652900086D290008000000001E
:10002000000000000000000000000000752900082A
:1000300081290008000000008D2900089929000886
:100040005D2C00085D2C00085D2C00085D2C00086C
:100050005D2C00085D2C00085D2C00085D2C00085C
:100060005D2C00085D2C00085D2C00085D2C00084C
:100070005D2C00085D2C00085D2C00085D2C00083C
:100080005D2C00085D2C00085D2C00085D2C00082C
:100090005D2C00085D2C00085D2C00085D2C00081C
:1000A0005D2C00085D2C00085D2C00085D2C00080C
:1000B0005D2C00085D2C00085D2C00085D2C0008FC
:1000C0005D2C00085D2C00085D2C00085D2C0008EC
:1000D0005D2C00085D2C00085D2C00085D2C0008DC
:1000E0005D2C00085D2C00085D2C0008000000005D
:1000F0000000000000000000000000000000000000
:0C01000000000000000000005FF808F1A3
:1001100010B5054C237833B9044B13B10448AFF341
:1001200000800123237010BD0C020020000000009D
:10013000A879000808B5034B1BB103490348AFF386
:10014000008008BD0000000010020020A87900080F
:10015000034613F8012B002AFBD1181A0138704707
:1001600081F0004102E000BF83F0004330B54FEA68
:1001700041044FEA430594EA050F08BF90EA020FD5
:100180001FBF54EA000C55EA020C7FEA645C7FEA68
:10019000655C00F0E2804FEA5454D4EB5555B8BF8B
:1001A0006D420CDD2C4480EA020281EA030382EAFC
:1001B000000083EA010180EA020281EA0303362D8E
:1001C00088BF30BD11F0004F4FEA01314FF4801C61
:1001D0004CEA113102D0404261EB410113F0004F73
:1001E0004FEA03334CEA133302D0524263EB43032A
:1001F00094EA050F00F0A780A4F10104D5F1200EC8
:100200000DDB02FA0EFC22FA05F2801841F1000122
:1002100003FA0EF2801843FA05F359410EE0A5F1F6
:1002200020050EF1200E012A03FA0EFC28BF4CF027
:10023000020C43FA05F3C01851EBE37101F00045DD
:1002400007D54FF0000EDCF1000C7EEB00006EEBEA
:100250000101B1F5801F1BD3B1F5001F0CD3490874
:100260005FEA30004FEA3C0C04F101044FEA4452CB
:1002700012F5800F80F09A80BCF1004F08BF5FEA52
:10028000500C50F1000041EB045141EA050130BD32
:100290005FEA4C0C404141EB0101013C28BFB1F544
:1002A000801FE9D291F0000F04BF01460020B1FA8F
:1002B00081F308BF2033A3F10B03B3F120020CDA62
:1002C0000C3208DD02F1140CC2F10C0201FA0CF040
:1002D00021FA02F10CE002F11402D8BFC2F1200CA5
:1002E00001FA02F120FA0CFCDCBF41EA0C0190405B
:1002F000E41AA2BF01EB0451294330BD6FEA0404A4
:100300001F3C1CDA0C340EDC04F11404C4F120028E
:1003100020FA04F001FA02F340EA030021FA04F3A0
:1003200045EA030130BDC4F10C04C4F1200220FAF7
:1003300002F001FA04F340EA0300294630BD21FA35
:1003400004F0294630BD94F0000F83F4801306BFFB
:1003500081F480110134013D4EE77FEA645C18BFEF
:100360007FEA655C29D094EA050F08BF90EA020F86
:1003700005D054EA000C04BF1946104630BD91EA7E
:10038000030F1EBF0021002030BD5FEA545C05D181
:100390004000494128BF41F0004130BD14F58004C0
:1003A0003CBF01F5801130BD01F0004545F0FE4134
:1003B00041F470014FF0000030BD7FEA645C1ABF69
:1003C000194610467FEA655C1CBF0B46024650EAA0
:1003D000013406BF52EA033591EA030F41F40021CC
:1003E00030BD00BF90F0000F04BF0021704730B552
:1003F0004FF4806404F132044FF000054FF0000127
:1004000050E700BF90F0000F04BF0021704730B5E7
:100410004FF4806404F1320410F0004548BF4042BC
:100420004FF000013EE700BF42004FEAE2014FEA11
:1004300031014FEA02701FBF12F07F4393F07F4FEC
:1004400081F06051704732F07F4208BF704793F0EF
:100450007F4F04BF41F40021704730B54FF4607402
:1004600001F0004521F000411CE700BF50EA010205
:1004700008BF704730B54FF000050AE050EA0102AE
:1004800008BF704730B511F0004502D5404261EB1E
:1004900041014FF4806404F132045FEA915C3FF45F
:1004A000D8AE4FF003025FEADC0C18BF03325FEAFC
:1004B000DC0C18BF033202EBDC02C2F1200300FAAD
:1004C00003FC20FA02F001FA03FE40EA0E0021FAD2
:1004D00002F11444BDE600BF70B54FF0FF0C4CF4C0
:1004E000E06C1CEA11541DBF1CEA135594EA0C0F72
:1004F00095EA0C0F00F0DEF82C4481EA030621EAAD
:100500004C5123EA4C5350EA013518BF52EA0335E7
:1005100041F4801143F4801338D0A0FB02CE4FF099
:100520000005E1FB02E506F00042E0FB03E54FF0C9
:100530000006E1FB03569CF0000F18BF4EF0010EC1
:10054000A4F1FF04B6F5007F64F5407404D25FEABD
:100550004E0E6D4146EB060642EAC62141EA555170
:100560004FEAC52040EA5E504FEACE2EB4F1FD0CB2
:1005700088BFBCF5E06F1ED8BEF1004F08BF5FEA30
:10058000500E50F1000041EB045170BD06F00046E2
:1005900046EA010140EA020081EA0301B4EB5C048F
:1005A000C2BFD4EB0C0541EA045170BD41F4801187
:1005B0004FF0000E013C00F3AB8014F1360FDEBFAC
:1005C000002001F0004170BDC4F10004203C35DA88
:1005D0000C341BDC04F11404C4F1200500FA05F30B
:1005E00020FA04F001FA05F240EA020001F00042AC
:1005F00021F0004110EBD37021FA04F642EB060122
:100600005EEA430E08BF20EAD37070BDC4F10C044B
:10061000C4F1200500FA04F320FA05F001FA04F20F
:1006200040EA020001F0004110EBD37041F10001FB
:100630005EEA430E08BF20EAD37070BDC4F1200506
:1006400000FA05F24EEA020E20FA04F301FA05F26E
:1006500043EA020321FA04F001F0004121FA04F216
:1006600020EA020000EBD3705EEA430E08BF20EAE6
:10067000D37070BD94F0000F0FD101F00046400020
:1006800041EB010111F4801F08BF013CF7D041EAA2
:10069000060195F0000F18BF704703F000465200A6
:1006A00043EB030313F4801F08BF013DF7D043EA77
:1006B0000603704794EA0C0F0CEA135518BF95EA2D
:1006C0000C0F0CD050EA410618BF52EA4306D1D1B4
:1006D00081EA030101F000414FF0000070BD50EAD3
:1006E000410606BF1046194652EA430619D094EA5D
:1006F0000C0F02D150EA013613D195EA0C0F05D147
:1007000052EA03361CBF104619460AD181EA03019A
:1007100001F0004141F0FE4141F470014FF0000052
:1007200070BD41F0FE4141F4780170BD70B54FF0ED
:10073000FF0C4CF4E06C1CEA11541DBF1CEA13556D
:1007400094EA0C0F95EA0C0F00F0A7F8A4EB05044F
:1007500081EA030E52EA03354FEA013100F0888046
:100760004FEA03334FF0805545EA131343EA12630F
:100770004FEA022245EA111545EA10654FEA0026C4
:100780000EF000419D4208BF964244F1FD0404F57D
:10079000407402D25B084FEA3202B61A65EB0305D9
:1007A0005B084FEA32024FF480104FF4002CB6EB96
:1007B000020E75EB030E22BFB61A754640EA0C0016
:1007C0005B084FEA3202B6EB020E75EB030E22BF56
:1007D000B61A754640EA5C005B084FEA3202B6EB97
:1007E000020E75EB030E22BFB61A754640EA9C0056
:1007F0005B084FEA3202B6EB020E75EB030E22BF26
:10080000B61A754640EADC0055EA060E18D04FEAE3
:10081000051545EA16754FEA06164FEAC30343EA83
:1008200052734FEAC2025FEA1C1CC0D111F4801F50
:100830000BD141EA00014FF000004FF0004CB6E749
:1008400011F4801F04BF01430020B4F1FD0C88BFE8
:10085000BCF5E06F3FF6AFAEB5EB030C04BFB6EBF3
:10086000020C5FEA500C50F1000041EB045170BDE6
:100870000EF0004E4EEA113114EB5C04C2BFD4EB13
:100880000C0541EA045170BD41F480114FF0000E97
:10089000013C90E645EA060E8DE60CEA135594EA13
:1008A0000C0F08BF95EA0C0F3FF43BAF94EA0C0F16
:1008B0000AD150EA01347FF434AF95EA0C0F7FF48B
:1008C00025AF104619462CE795EA0C0F06D152EADF
:1008D00003353FF4FDAE1046194622E750EA4106C3
:1008E00018BF52EA43067FF4C5AE50EA41047FF4D4
:1008F0000DAF52EA43057FF4EBAE12E74FF0FF3C39
:1009000006E000BF4FF0010C02E000BF4FF0010C09
:100910004DF804CD4FEA410C7FEA6C5C4FEA430C82
:1009200018BF7FEA6C5C1BD001B050EA410C0CBFD1
:1009300052EA430C91EA030F02BF90EA020F002033
:10094000704710F1000F91EA030F58BF994208BF9A
:1009500090422CBFD8176FEAE37040F00100704757
:100960004FEA410C7FEA6C5C02D150EA013C07D1AE
:100970004FEA430C7FEA6C5CD6D152EA033CD3D0F9
:100980005DF8040B704700BF8446104662468C46F3
:100990001946634600E000BF01B5FFF7B7FF002826
:1009A00048BF10F1000F01BD4DF808EDFFF7F4FF4F
:1009B0000CBF012000205DF808FB00BF4DF808EDDA
:1009C000FFF7EAFF34BF012000205DF808FB00BFFD
:1009D0004DF808EDFFF7E0FF94BF012000205DF81F
:1009E00008FB00BF4DF808EDFFF7CEFF94BF0120D4
:1009F00000205DF808FB00BF4DF808EDFFF7C4FFCD
:100A000034BF012000205DF808FB00BF4FEA410C15
:100A10007FEA6C5C02D150EA013C0AD14FEA430CF8
:100A20007FEA6C5C02D152EA033C02D14FF0000035
:100A300070474FF0010070474FEA410212F5001273
:100A400015D211D56FF47873B3EB625212D94FEA15
:100A5000C12343F0004343EA505311F0004F23FAFF
:100A600002F018BF404270474FF00000704750EA54
:100A7000013005D111F0004008BF6FF00040704711
:100A80004FF00000704700BF80B586B002AF03464C
:100A9000FB71FB7923F00F03FB73FB791B01BB7325
:100AA000FB7B43F00C03DBB23B72FB7B43F00803A0
:100AB000DBB27B72BB7B43F00C03DBB2BB72BB7B54
:100AC00043F00803DBB2FB7207F1080264230093D2
:100AD00004234E21034802F015FD00BF1037BD4628
:100AE00080BD00BF2802002080B586B002AF03465B
:100AF000FB71FB7923F00F03FB73FB791B01BB73C5
:100B0000FB7B43F00D03DBB23B72FB7B43F009033D
:100B1000DBB27B72BB7B43F00D03DBB2BB72BB7BF2
:100B200043F00903DBB2FB7207F108026423009370
:100B300004234E21034802F0E5FC00BF1037BD46F8
:100B400080BD00BF2802002080B582B000AF8020A9
:100B5000FFF79AFF00237B6005E02020FFF7C4FF2A
:100B60007B6801337B607B68452BF6DD00BF00BFEF
:100B70000837BD4680BD80B582B000AF786039606F
:100B80007B68002B03D07B68012B05D009E03B6814
:100B900043F080033B6004E03B6843F0C0033B60EC
:100BA00000BF3B68DBB21846FFF76EFF00BF083797
:100BB000BD4680BD80B500AF322002F0B3F83020D2
:100BC000FFF762FF052002F0ADF83020FFF75CFF71
:100BD000012002F0A7F83020FFF756FF0A2002F0AC
:100BE000A1F82020FFF750FF0A2002F09BF82820F0
:100BF000FFF74AFF012002F095F80820FFF744FFB5
:100C0000012002F08FF80120FFF73EFF012002F0E3
:100C100089F8012002F086F80620FFF735FF012051
:100C200002F080F80C20FFF72FFF00BF80BD80B5D9
:100C300082B000AF786006E07B685A1C7A601B784F
:100C40001846FFF751FF7B681B78002BF4D100BFDB
:100C500000BF0837BD4680BD80B483B000AF786068
:100C60007B680E4A82FB03129210DB17D31ADBB2A9
:100C70001B01D8B27A68094B83FB02139910D31772
:100C8000C91A0B469B000B445B00D11ACBB203443C
:100C9000DBB218460C37BD4680BC70476766666697
:100CA00080B483B000AF0346FB71FB791B09DBB254
:100CB0001A4613469B0013445B001A46FB7903F067
:100CC0000F03134418460C37BD4680BC7047000024
:100CD00090B589B004AF0446084611461A4623462B
:100CE000FB710346BB710B467B7113463B71FB796D
:100CF0001846FFF7B1FF03463B72BB791846FFF772
:100D0000ABFF03467B727B791846FFF7A5FF0346CE
:100D1000BB723B791846FFF79FFF0346FB7297F8BB
:100D200020301846FFF798FF03463B7397F82430AE
:100D30001846FFF791FF03467B7397F82830184653
:100D4000FFF78AFF0346BB734FF47A7302930723BE
:100D5000019307F10803009301230022D0210348E7
:100D600002F0CEFC00BF1437BD4690BD2802002023
:100D700080B586B004AF3B4600221A60C3F803205A
:100D80004FF47A730293072301933B4600930123A8
:100D90000022D021204802F0ADFD0346002B37D1C0
:100DA0003B781846FFF77CFF0346DAB21B4B1A70FC
:100DB0007B781846FFF774FF0346DAB2174B5A7078
:100DC000BB781846FFF76CFF0346DAB2134B9A70F4
:100DD000FB781846FFF764FF0346DAB20F4BDA7070
:100DE0003B791846FFF75CFF0346DAB20B4B1A71EA
:100DF0007B791846FFF754FF0346DAB2074B5A7166
:100E0000BB791846FFF74CFF0346DAB2034B9A71E1
:100E100000BF0837BD4680BD280200207C020020AC
:100E200080B500AF0E20FFF72FFE00BF80BD80B55C
:100E300000AF0C20FFF728FE00BF80BD80B582B058
:100E400002AF00210020FFF796FE1D48FFF7EFFEDE
:100E500000210120FFF78FFE1A48FFF7E8FE062168
:100E60000020FFF788FE184B1B791946164B5B795B
:100E70001A46154B9B79019300920B46134A202189
:100E8000134804F041FC1248FFF7D1FE062101206F
:100E9000FFF771FE0C4B9B7819460B4B5B781A469B
:100EA000094B1B78019300920B460A4A20210848FF
:100EB00004F02AFC0648FFF7BAFE00BFBD4680BD1D
:100EC000C0790008C87900087C020020D0790008A9
:100ED00084020020E479000880B500AF2A4B1B682B
:100EE000002B10D1FFF730FE00210020FFF743FE5A
:100EF0002648FFF79CFE00210120FFF73CFE244816
:100F0000FFF795FE3DE0204B1B68012B10D1FFF74A
:100F10001BFE00210020FFF72EFE1E48FFF787FE74
:100F200000210120FFF727FE1B48FFF780FE28E085
:100F3000154B1B68022B10D1FFF706FE0021002085
:100F4000FFF719FE1548FFF772FE00210120FFF799
:100F500012FE1348FFF76BFE13E00B4B1B68032BCD
:100F60000FD1FFF7F1FD00210020FFF704FE0D482F
:100F7000FFF75DFE00210120FFF7FDFD0A48FFF7A6
:100F800056FE00BF80BD00BFB8020020F479000803
:100F9000FC790008047A00080C7A0008147A00082A
:100FA0001C7A0008247A00082C7A000880B500AF6B
:100FB0001A4B1B68032B2ED801A252F823F000BF56
:100FC00015100008D10F0008F30F000815100008D5
:100FD000FFF7BAFD00210020FFF7CDFD1048FFF715
:100FE00026FE0C210120FFF7C6FD0E48FFF71FFE6D
:100FF00011E0FFF7A9FD00210020FFF7BCFD0A4822
:10100000FFF715FE0C210120FFF7B5FD0548FFF79E
:101010000EFE00E000BF00BF80BD00BFB802002090
:10102000347A0008407A0008487A000880B500AF9A
:101030003F4B1B68002B10D1FFF786FD00210020DD
:10104000FFF799FD3B48FFF7F2FD00210120FFF774
:1010500092FD3948FFF7EBFD67E0354B1B68012B2C
:1010600010D1FFF771FD00210020FFF784FD334808
:10107000FFF7DDFD00210120FFF77DFD3048FFF780
:10108000D6FD52E02A4B1B68022B10D1FFF75CFD06
:1010900000210020FFF76FFD2A48FFF7C8FD00215F
:1010A0000120FFF768FD2848FFF7C1FD3DE0204B18
:1010B0001B68032B10D1FFF747FD00210020FFF72D
:1010C0005AFD2248FFF7B3FD00210120FFF753FD31
:1010D0001F48FFF7ACFD28E0154B1B68042B10D10F
:1010E000FFF732FD00210020FFF745FD1948FFF70B
:1010F0009EFD00210120FFF73EFD1748FFF797FDF9
:1011000013E00B4B1B68052B0FD1FFF71DFD0021D2
:101110000020FFF730FD1148FFF789FD0021012075
:10112000FFF729FD0E48FFF782FD00BF80BD00BF1D
:10113000BC020020F4790008547A0008047A000800
:10114000607A00086C7A0008787A0008847A0008CF
:10115000907A00089C7A0008A87A0008B47A0008FF
:10116000C07A000880B500AF1C4B1B68002B31D043
:10117000012B17D1FFF7E8FC00210020FFF7FBFC53
:101180001748FFF754FD00210120FFF7F4FC154834
:10119000FFF74DFD0C210120FFF7EDFC1248FFF792
:1011A00046FD18E0FFF7D0FC00210020FFF7E3FC2C
:1011B0000B48FFF73CFD00210120FFF7DCFC09484C
:1011C000FFF735FD0C210120FFF7D5FC0648FFF79E
:1011D0002EFD00E000BF00BF80BD00BFBC020020AC
:1011E000C0790008C8790008407A000880B500AFCF
:1011F000FFF7AAFC00210020FFF7BDFC0548FFF720
:1012000016FD02210120FFF7B6FC0348FFF70FFD92
:1012100000BF80BDCC7A0008E07A000880B483B0BB
:1012200000AF78603960114B1B68002B0CD17B68D4
:101230001B685A1E7B681A607B681B68002B0FDCDA
:101240007B681F221A600BE03B681B685A1E3B68D4
:101250001A603B681B68002B02DA3B6817221A6091
:1012600000BF0C37BD4680BC704700BFB4020020F1
:1012700080B483B000AF78603960114B1B68002BDD
:101280000CD17B681B685A1E7B681A607B681B68E0
:10129000002B0FDC7B680C221A600BE03B681B689C
:1012A0005A1E3B681A603B681B68002B02DA3B68D9
:1012B0003B221A6000BF0C37BD4680BC704700BFA0
:1012C000B402002080B483B000AF78603960114B65
:1012D0001B68002B0CD17B681B685A1C7B681A604A
:1012E0007B681B681F2B0FDD7B6801221A600BE0F7
:1012F0003B681B685A1C3B681A603B681B68172BCD
:1013000002DD3B6800221A6000BF0C37BD4680BC7E
:10131000704700BFB402002080B483B000AF786093
:101320003960114B1B68002B0CD17B681B685A1C61
:101330007B681A607B681B680C2B0FDD7B680122C1
:101340001A600BE03B681B685A1C3B681A603B68DC
:101350001B683B2B02DD3B6800221A6000BF0C3784
:10136000BD4680BC704700BFB402002080B584B089
:1013700000AFF860B9607A603B60FB681B68092BBE
:1013800015DC06210020FFF7F6FB5B48FFF74FFC5A
:1013900007210020FFF7EFFBFB681B68574A03217A
:1013A000574804F0B1F95648FFF741FC0DE006211B
:1013B0000020FFF7E0FBFB681B68504A0321504800
:1013C00004F0A2F94E48FFF732FC08210020FFF795
:1013D000D2FB4C48FFF72BFCBB681B68092B15DCC4
:1013E00009210020FFF7C7FB4348FFF720FC0A2133
:1013F0000020FFF7C0FBBB681B68404A0321404840
:1014000004F082F93E48FFF712FC0DE009210020AC
:10141000FFF7B1FBBB681B68384A0321384804F06A
:1014200073F93748FFF703FC7B681B68092B15DC51
:1014300006210120FFF79FFB2F48FFF7F8FB07214C
:101440000120FFF798FB7B681B682C4A03212C487E
:1014500004F05AF92A48FFF7EAFB0DE006210120C3
:10146000FFF789FB7B681B68244A0321244804F0AA
:101470004BF92348FFF7DBFB08210120FFF77BFB3B
:101480002148FFF7D4FB3B681B68092B15DC0921B9
:101490000120FFF770FB1848FFF7C9FB0A21012064
:1014A000FFF769FB3B681B68144A0321144804F0EA
:1014B0002BF91348FFF7BBFB0DE009210120FFF7D3
:1014C0005AFB3B681B680D4A03210D4804F01CF9C8
:1014D0000B48FFF7ACFB0D4B1B680D4A1268114619
:1014E0001846FFF748FBFFF79BFC322001F01AFC7F
:1014F00000BF1037BD4680BDF07A0008F47A0008BE
:1015000084020020F87A0008FC7A0008B402002067
:101510000400002080B500AF01224FF48071024822
:1015200001F0A3FE00BF80BD0008014080B500AF00
:1015300000224FF48071024801F097FE00BF80BD89
:101540000008014080B500AF10210E4801F076FE82
:101550000346002B01D1012312E02021094801F0AC
:101560006DFE0346002B01D1012309E0402105480F
:1015700001F064FE0346002B01D1012300E00023AB
:10158000184680BD0008014080B586B000AF4FF41A
:10159000FA73FB604EF66023BB6001F0B9FB786024
:1015A0007B687B610023FB74FFF720FE01F0B0FB3A
:1015B00038603A687B69D31AFA689A4210D83B6857
:1015C0007B61FB7C002B0CBF01230023DBB2FB748F
:1015D000FB7C002B02D0FFF79DFF01E0FFF7A6FF89
:1015E000FFF7B0FF0346002B21D0FFF79FFF9620A7
:1015F00001F098FB02E00A2001F094FB102116484C
:1016000001F01CFE0346002BF5D02021124801F00A
:1016100015FE0346002BEED040210F4801F00EFED0
:101620000346002BE7D00D4B00221A600FE03A680A
:101630007B68D31ABA689A4205D8FFF777FF074B41
:1016400000221A6003E00A2001F06CFBAEE700BF45
:101650001837BD4680BD00BF00080140C40200200D
:10166000F0B585B004AF01F0FBFA01F08DFA01F09E
:1016700079F801F0CFF8FFF79DFAFFF765FAFFF769
:1016800077FBFFF775FB2021864801F0D7FD034665
:10169000012B0CBF01230023DBB21A46824B1A60D8
:1016A0004021804801F0CAFD0346012B0CBF0123F5
:1016B0000023DBB21A467D4B1A601021794801F0F5
:1016C000BDFD0346012B0CBF01230023DBB21A46EC
:1016D000774B1A60744B1A68764B1B689A4200F07D
:1016E000CF81714B1B68002B40F0C681724B1B6889
:1016F000012B0FD1714B1B68022B03DD6F4B0022B6
:101700001A6004E06D4B1B6801336C4A1360FFF7ED
:10171000E3FBAEE1684B1B68022B15D1674B1B68DE
:10172000012B03D0654B1B68022B0DD1644B1B684A
:101730000133634A1360624B1B680F2B40F399819E
:101740005F4B00221A6094E15B4B1B68032B40F057
:1017500006815A4B1B68012B74D1594B1B68002B17
:1017600003D0574B1B68012B0DD1564B1B68013B17
:10177000544A1360534B1B68002B00F37A81514B82
:101780001F221A6075E14E4B1B68032B03D04C4B94
:101790001B68042B0DD14C4B1B68013B4A4A13605C
:1017A000494B1B68002B00F36481474B0C221A60E5
:1017B0005FE1434B1B68062B0DD1444B1B68013B7B
:1017C000424A1360414B1B68002B80F252813F4B11
:1017D00009221A604DE13A4B1B68072B0DD13C4B97
:1017E0001B68013B3A4A1360394B1B68002B80F29F
:1017F0004081374B09221A603BE1314B1B68082BB3
:101800000DD1344B1B68013B324A1360314B1B68CE
:10181000002B80F22E812F4B09221A6029E1284BE0
:101820001B68092B40F025812B4B1B68013B2A4A82
:101830001360294B1B68002B80F21B81264B092269
:101840001A6016E11D4B1B68022B62D11C4B1B68F2
:10185000002B03D01A4B1B68012B0DD11F4B1B68AB
:10186000013B1E4A13601D4B1B68002B80F2018157
:101870001A4B17221A60FCE0114B1B68032B03D094
:101880000F4B1B68042B2DD1154B1B68013B144AD1
:101890001360134B1B68002B80F2EB80104B3B2234
:1018A0001A60E6E000080140A4020020A80200201F
:1018B000AC02002000000020C0020020B80200207E
:1018C000B0020020080000200C000020C802002008
:1018D000CC020020D0020020D4020020DC02002034
:1018E000E0020020834B1B68062B04D0814B1B6851
:1018F000072B40F0BE80804B1B68013B7E4A136083
:101900007D4B1B68002B80F2B4807B4B3B221A601E
:10191000AFE07A4B1B68032B40F0AB80784B1B6821
:101920000133774A1360774B1B68002B0BD1744B44
:101930001B680A2B40F39D80714B06221A60714B85
:1019400001221A6095E06E4B1B680F2B40F39180CB
:101950006B4B06221A606B4B00221A6089E06A4BBF
:101960001B68022B12D1654B1B68032B0ED1674BF2
:101970001B680133654A1360644B1B68052B02DD4D
:10198000624B00221A60FFF751FB72E05E4B1B684E
:10199000042B6ED1594B1B68032B6AD1584B1B6823
:1019A000062B03D0564B1B68072B2CD1574B1B68BB
:1019B000012B04D156495748FFF730FC58E0534BF0
:1019C0001B68022B04D154495448FFF727FC4FE011
:1019D0004E4B1B68032B04D151495248FFF71EFCA4
:1019E00046E04A4B1B68042B04D14F494F48FFF790
:1019F00015FC3DE0454B1B68052B39D14C494D4842
:101A0000FFF70CFC34E03E4B1B68092B03D03C4B2A
:101A10001B680A2B2DD13D4B1B68012B04D1464975
:101A20004648FFF725FC24E0384B1B68022B04D105
:101A300043494448FFF71CFC1BE0344B1B68032B55
:101A400004D141494148FFF713FC12E02F4B1B68BA
:101A5000042B04D13E493F48FFF70AFC09E02B4B19
:101A60001B68052B05D13C493C48FFF701FC00E011
:101A700000BF962001F056F9394B1B68394A1360B4
:101A8000394B1A68374B1B689A4200F01082364B6C
:101A90001B68002B40F007821B4B1B68012B0FD1EA
:101AA000164B1B68002B03DC144B03221A6004E066
:101AB000124B1B68013B114A1360FFF70DFAEFE16F
:101AC000114B1B68022B51D10C4B1B68012B03D00F
:101AD0000A4B1B68022B49D1064B1B68013B054A88
:101AE0001360044B1B68002B80F2DA81014B0F223C
:101AF0001A60D5E1B0020020E4020020B802002004
:101B000004000020B4020020C0020020BC0200201B
:101B1000E802002010000020F00200201800002041
:101B2000F8020020200000200003002028000020F0
:101B30000803002030000020EC02002014000020E8
:101B4000F40200201C000020FC02002024000020E1
:101B5000040300202C0000200C030020340000208F
:101B6000A402002000000020A80200208E4B1B6869
:101B7000032B40F0E6808D4B1B68012B74D18C4BFE
:101B80001B68002B03D08A4B1B68012B0DD1894B9E
:101B90001B680133874A1360864B1B681F2B40F379
:101BA0007F81844B01221A607AE1814B1B68032BF1
:101BB00003D07F4B1B68042B0DD17F4B1B68013377
:101BC0007D4A13607C4B1B680C2B40F369817A4B78
:101BD00001221A6064E1764B1B68062B0DD1774B0E
:101BE0001B680133754A1360744B1B68092B40F363
:101BF0005781724B00221A6052E16D4B1B68072B14
:101C00000DD16F4B1B6801336D4A13606C4B1B6821
:101C1000092B40F345816A4B00221A6040E1644B76
:101C20001B68082B0DD1674B1B680133654A136095
:101C3000644B1B68092B40F33381624B00221A600E
:101C40002EE15B4B1B68092B40F02A815E4B1B6821
:101C500001335D4A13605C4B1B68092B40F3208104
:101C6000594B00221A601BE1504B1B68022B42D1DA
:101C70004F4B1B68002B03D04D4B1B68012B0DD124
:101C8000524B1B680133514A1360504B1B68172B92
:101C900040F306814D4B00221A6001E1444B1B6862
:101CA000032B03D0424B1B68042B0DD1484B1B6800
:101CB0000133474A1360464B1B683B2B40F3F080CF
:101CC000434B00221A60EBE0394B1B68062B04D013
:101CD000374B1B68072B40F0E3803E4B1B680133FA
:101CE0003C4A13603B4B1B683B2B40F3D980394B7C
:101CF00000221A60D4E02D4B1B68032B40F0D080EB
:101D0000354B1B68013B344A1360344B1B68002B76
:101D10000BD1314B1B68052B00F3C2802E4B0F22D9
:101D20001A602E4B01221A60BAE02B4B1B68052B60
:101D300000F3B680284B0A221A60284B00221A6052
:101D4000AEE0194B1B68022B12D1184B1B68032BFA
:101D50000ED1234B1B68013B214A1360204B1B68AB
:101D6000002B02DA1E4B05221A60FFF75FF997E09D
:101D70000D4B1B68042B40F093800C4B1B68032B0E
:101D800040F08E80144B1B68062B03D0124B1B684F
:101D9000072B4FD1124B1B68012B27D11149124839
:101DA000FFF790FA7BE000BFC0020020B8020020DD
:101DB000B0020020080000200C000020C802002013
:101DC000CC020020D0020020D4020020DC0200203F
:101DD000E0020020E402002004000020B402002001
:101DE000BC020020E8020020100000208C4B1B6881
:101DF000022B04D18B498C48FFF764FA4FE0884BE3
:101E00001B68032B04D189498948FFF75BFA46E038
:101E1000834B1B68042B04D186498748FFF752FA8D
:101E20003DE07F4B1B68052B39D184498448FFF77F
:101E300049FA34E0834B1B68092B03D0814B1B68A4
:101E40000A2B2DD1764B1B68012B04D17E497F488C
:101E5000FFF762FA24E0724B1B68022B04D17C4925
:101E60007C48FFF759FA1BE06D4B1B68032B04D12C
:101E700079497A48FFF750FA12E0694B1B68042B46
:101E800004D177497748FFF747FA09E0644B1B68AC
:101E9000052B05D174497548FFF73EFA00E000BFF5
:101EA000962000F03FFF724B1B68724A1360724B22
:101EB0001A68704B1B689A4200F033816E4B1B68A6
:101EC000002B40F02A816D4B1B6801336B4A136075
:101ED0006A4B1B68012B02D1FEF7FEFF10E1674B36
:101EE0001B68022B1ED1664B1B68002B07D1634B6E
:101EF00000221A60FEF73CFFFEF7A0FF00E1604BF6
:101F00001B68012B03D05E4B1B68022B02D1FFF72D
:101F10004DF8F5E05A4B1B68032B40F0F180FFF7BA
:101F200085F8EDE0554B1B68042B3AD1544B1B68E8
:101F3000012B05D1514B02221A60FFF737F8DFE081
:101F40004F4B1B68022B05D14C4B02221A60FFF746
:101F50002DF8D5E04A4B1B68032B40F0D180394B5C
:101F60001B680C2B0CD0374B1B680D2B08D0354B46
:101F70001B680E2B04D0334B1B680F2B40F0C08026
:101F8000FFF754F83D4B02221A603D4B03221A60C2
:101F90002C4B06221A603B4B00221A60FEF747FFCB
:101FA000AEE0364B1B68032B25D1354B1B68022B4B
:101FB00003D0334B1B68012B1DD1334B1B680C2BFB
:101FC0000BD0314B1B680D2B07D02F4B1B680E2BF2
:101FD00003D02D4B1B680F2B0DD1284B01221A600B
:101FE000274B00221A60284B00221A60FEF774FF6C
:101FF000FEF71DFF84E0214B1B68032B5DD1204BB6
:102000001B68032B59D1064B1B68002B3ED11B4B81
:1020100001221A60024B00221A60FEF75DFF6EE09B
:10202000BC020020F002002018000020F80200206E
:1020300020000020000300202800002008030020CA
:102040003000002004000020EC02002014000020DA
:10205000F40200201C000020FC02002024000020CC
:10206000040300202C0000200C030020340000207A
:10207000A802002000000020AC020020C0020020C6
:10208000B8020020B4020020B0020020A24B1B685E
:10209000012B0FD0A04B1B68022B0BD09E4B1B6853
:1020A000032B07D09C4B1B68042B03D09A4B1B6857
:1020B000052B24D1FFF756F821E0984B1B68052B20
:1020C0001ED1974B1B68032B1AD1934B1B68012B16
:1020D0000FD0914B1B68022B0BD08F4B1B68032B2F
:1020E00007D08D4B1B68042B03D08B4B1B68052B33
:1020F00006D1FFF737F8894B03221A6000E000BFD2
:10210000884B1B68012B05D1864B00221A60834B3C
:1021100000221A60962000F005FE834B1B68834A5C
:1021200013607E4B1B68002B0AD17D4B1B68002B74
:1021300006D1FEF71DFEFEF781FEFEF778FE3CE2BB
:10214000764B1B68022B04D0744B1B68032B40F0AA
:10215000AF81734B1B68032B00F0AA81704B1B6887
:10216000012B40F00181724B1B68092B11DC00210F
:102170000120FEF700FD6F48FEF759FD6C4B1B6810
:102180006D4A03216D4803F0BFFA6C48FEF74FFD1E
:102190000DE000210120FEF7EEFC654B1B68664A4E
:1021A0000321664803F0B0FA6448FEF740FD0221BF
:1021B0000120FEF7E0FC6248FEF739FD614B1B6829
:1021C000092B11DC03210120FEF7D5FC5948FEF74D
:1021D0002EFD5C4B1B68584A0321584803F094FAC3
:1021E0005648FEF724FD0DE003210120FEF7C3FC55
:1021F000544B1B68504A0321504803F085FA4F485E
:10220000FEF715FD05210120FEF7B5FC4C48FEF751
:102210000EFD06210120FEF7AEFC4B4B1B68464A23
:102220000221464803F070FA4448FEF700FD0721FA
:102230000120FEF7A0FC454B1B683F4A02213F48A6
:1022400003F062FA3D48FEF7F2FC08210120FEF798
:1022500092FC3F4B1B68384A0221384803F054FA7D
:102260003648FEF7E4FC09210120FEF784FC394BD7
:102270001B68314A0221314803F046FA2F48FEF725
:10228000D6FC314B1B684FF47A7203FB02F22F4BE2
:102290001B68642101FB03F3D1182D4B1A68134608
:1022A0009B0013445B00CA182A4B1B6813442A4A3C
:1022B00013602A4B1B6819460120FEF75CFCFEF7F1
:1022C000AFFD322000F02EFD254B1D78244B5E78AB
:1022D000234B93F802C0224B93F803E0144B1B6886
:1022E000D9B2184B1B68D8B21B4B1B681D4A82FB26
:1022F00003425411DA17A21A642404FB02F29A1A58
:10230000D3B202930190009173466246314628464B
:10231000FEF7DEFC50E100BFBC020020C00200203E
:10232000B8020020C4020020AC02002000000020FF
:1023300008000020F07A0008F47A000884020020E7
:10234000F87A00080C000020C8020020CC0200200F
:10235000D0020020D4020020D8020020B0020020C9
:102360007C0200201F85EB51734B1B68022B40F051
:102370002381724B1B68092B11DC00210120FEF721
:10238000FAFB6F48FEF753FC6C4B1B686D4A032148
:102390006D4803F0B9F96C48FEF749FC0DE00021E7
:1023A0000120FEF7E8FB654B1B68664A032166487F
:1023B00003F0AAF96448FEF73AFC02210120FEF777
:1023C000DAFB6248FEF733FC614B1B68092B11DC1A
:1023D00003210120FEF7CFFB5948FEF728FC5C4B98
:1023E0001B68584A0321584803F08EF95648FEF7F7
:1023F0001EFC0DE003210120FEF7BDFB544B1B68C2
:10240000504A0321504803F07FF94F48FEF70FFC74
:1024100005210120FEF7AFFB4C48FEF708FC4D4BB1
:102420001B68092B11DC06210120FEF7A4FB4448A0
:10243000FEF7FDFB474B1B68424A0321424803F06D
:1024400063F94148FEF7F3FB0DE006210120FEF79A
:1024500092FB404B1B683B4A03213B4803F054F975
:102460003948FEF7E4FB3C4B1B6819460120FEF798
:1024700082FBFEF7D5FC322000F054FC354B1B6884
:10248000D8B2334B1B68DCB22C4B1B68DDB2334B2C
:10249000DE78324B1B79314A527930498979029181
:1024A0000192009333462A462146FEF711FC83E051
:1024B0002B4B1B68032B03D0294B1B68042B7CD1AF
:1024C0001D4B1B68032B78D1264B1B68012B06D1B3
:1024D000254B264A26492748FEF748FF6DE0214B49
:1024E0001B68022B06D1244B244A25492548FEF7B8
:1024F0003DFF62E01B4B1B68032B06D1224B234A96
:1025000023492448FEF732FF57E0164B1B68042B83
:1025100006D1214B214A22492248FEF727FF4CE0F1
:10252000104B1B68052B48D11F4B204A20492148DE
:10253000FEF71CFF41E000BFB8020020DC020020D3
:10254000F07A0008F47A000884020020FC7A00087F
:10255000E0020020E4020020B00200207C02002003
:10256000C0020020BC020020EC020020E802002093
:102570001400002010000020F4020020F0020020CF
:102580001C00002018000020FC020020F80200209F
:10259000240000202000002004030020000300206D
:1025A0002C000020280000200C030020080300203D
:1025B000340000203000002000BF534B1B68002B6C
:1025C00040F09480514B1B791A46514B1B689A423C
:1025D0001BD04E4B1B791A464E4B1B689A4214D0A7
:1025E0004A4B1B791A464C4B1B689A420DD0474BFD
:1025F0001B791A46494B1B689A4206D0434B1B79FC
:102600001A46474B1B689A4273D1404B5B791A4676
:10261000444B1B689A421BD03C4B5B791A46424B99
:102620001B689A4214D0394B5B791A463F4B1B68A2
:102630009A420DD0354B5B791A463D4B1B689A4246
:1026400006D0324B5B791A463A4B1B689A4250D1FE
:102650002E4B9B781A46384B1B689A421BD02B4B4B
:102660009B781A46354B1B689A4214D0274B9B78AF
:102670001A46334B1B689A420DD0244B9B781A465E
:10268000304B1B689A4206D0204B9B781A462E4B43
:102690001B689A422DD11D4B5B781A462B4B1B6849
:1026A0009A421BD0194B5B781A46294B1B689A42F9
:1026B00014D0164B5B781A46264B1B689A420DD0F5
:1026C000124B5B781A46244B1B689A4206D00F4B7C
:1026D0005B781A46214B1B689A420AD10B4B1B7838
:1026E000012B06D11E4B01221A6002E01C4B002276
:1026F0001A601B4B1B68012B01D1FEF745FF02201E
:1027000000F010FBFEF7BDBFC00200207C020020DD
:1027100010000020180000202000002028000020C9
:1027200030000020140000201C00002024000020A5
:102730002C00002034000020E8020020F0020020DD
:10274000F80200200003002008030020EC02002013
:10275000F4020020FC020020040300200C030020EF
:10276000C402002080B588B000AF07F1100300223A
:102770001A605A609A60DA60244B9B69234A43F0DE
:1027800020039361214B9B6903F02003FB60FB68EE
:102790001E4B9B691D4A43F0040393611B4B9B69CD
:1027A00003F00403BB60BB68184B9B69174A43F0F6
:1027B00008039361154B9B6903F008037B607B68FA
:1027C0004FF480733B6101237B610023BB610223D3
:1027D000FB6107F1100319460D4800F0ABFB002226
:1027E0004FF480710A4800F040FD70233B610023E4
:1027F0007B610123BB6107F110031946044800F017
:1028000099FB00BF2037BD4680BD00BF00100240CD
:102810000008014080B500AF104B114A1A600F4B01
:10282000104A5A600D4B00229A600C4B0022DA606D
:102830000A4B4FF480421A61084B00225A61074B41
:1028400000229A61054B0022DA61044B00221A62D1
:10285000024800F023FD00BF80BD00BF2802002019
:1028600000540040A086010080B485B000AF154B35
:102870009B69144A43F001039361124B9B6903F077
:102880000103BB60BB680F4BDB690E4A43F080530A
:10289000D3610C4BDB6903F080537B607B680A4B90
:1028A0005B68FB60FB6823F0E063FB60FB6843F060
:1028B0000073FB60044AFB68536000BF1437BD46D9
:1028C00080BC7047001002400000014080B588B015
:1028D00000AF786007F1100300221A605A609A6016
:1028E000DA607B681B68154A934223D1144B9B69BD
:1028F000134A43F008039361114B9B6903F00803EB
:10290000FB60FB68C0233B6112237B610323FB61F7
:1029100007F1100319460B4800F00CFB084BDB696C
:10292000074A43F40013D361054BDB6903F400133A
:10293000BB60BB6800BF2037BD4680BD005400406F
:1029400000100240000C014080B400AF00BFBD4643
:1029500080BC704780B400AF00BFFDE780B400AF1B
:1029600000BFFDE780B400AF00BFFDE780B400AF5B
:1029700000BFFDE780B400AF00BFBD4680BC70471C
:1029800080B400AF00BFBD4680BC704780B400AFCC
:1029900000BFBD4680BC704780B500AF00F0A6F90F
:1029A00000BF80BD80B400AF01231846BD4680BC87
:1029B000704780B582B000AF7860396002F070FF78
:1029C000034616221A604FF0FF3318460837BD46FB
:1029D00080BD80B582B000AF78604FF0FF3178687D
:1029E000FFF7E7FF00BFFDE780B586B000AFF860F6
:1029F000B9607A6000237B610AE0AFF30080014692
:102A0000BB685A1CBA60CAB21A707B6901337B6119
:102A10007A697B689A42F0DB7B6818461837BD46B6
:102A200080BD80B586B000AFF860B9607A600023E1
:102A30007B6109E0BB685A1CBA601B781846AFF38B
:102A400000807B6901337B617A697B689A42F1DBA4
:102A50007B6818461837BD4680BD80B483B000AF90
:102A600078604FF0FF3318460C37BD4680BC704786
:102A700080B483B000AF786039603B684FF4005297
:102A80005A60002318460C37BD4680BC704780B49E
:102A900083B000AF7860012318460C37BD4680BC78
:102AA000704780B485B000AFF860B9607A600023E9
:102AB00018461437BD4680BC7047000080B584B00E
:102AC00000AF7860114B1B68002B02D10F4B104AEE
:102AD0001A600E4B1B68FB600C4B1A687B68134432
:102AE0006A46934207D902F0DBFE03460C221A60C5
:102AF0004FF0FF3306E0054B1A687B681344034A26
:102B00001360FB6818461037BD4680BD10030020D7
:102B10006804002080B400AF154B1B68144A43F0D2
:102B200001031360124B5A681149124B13404B605A
:102B30000F4B1B680E4A23F0847323F48033136019
:102B40000B4B1B680A4A23F480231360084B5B6815
:102B5000074A23F4FE035360054B4FF41F029A60AB
:102B6000054B4FF000629A6000BFBD4680BC7047C5
:102B7000001002400000FFF800ED00E080B400AF5C
:102B800072B600BF00BFFDE780B590B000AF07F19F
:102B9000180328220021184602F02FFE3B1D0022B8
:102BA0001A605A609A60DA601A610123BB614FF4BF
:102BB0008033FB6100233B620123BB6202237B6302
:102BC0004FF48033BB634FF4E013FB6307F118034A
:102BD000184601F077FC0346002B01D0FFF7CEFF2B
:102BE0000F237B600223BB600023FB604FF48063F4
:102BF0003B6100237B613B1D0221184601F0E4FE8E
:102C00000346002B01D0FFF7B9FF00BF4037BD4698
:102C100080BD0000002103E00B4B5B5843500431A2
:102C20000A480B4B42189A42F6D30A4A02E00023A4
:102C300042F8043B084B9A42F9D3FFF76BFF02F0CE
:102C400035FEFEF70DFD7047AC7E00080000002049
:102C50000C0200200C02002064040020FEE70000AB
:102C600080B500AF084B1B68074A43F010031360A0
:102C7000032000F02BF9002000F008F8FFF7F4FD26
:102C80000023184680BD00BF0020024080B582B0FE
:102C900000AF7860124B1A68124B1B7819464FF43C
:102CA0007A73B3FBF1F3B2FBF3F3184600F035F996
:102CB0000346002B01D001230EE07B680F2B0AD8BE
:102CC000002279684FF0FF3000F00BF9064A7B686C
:102CD0001360002300E0012318460837BD4680BD7D
:102CE00038000020400000203C00002080B400AFED
:102CF000054B1B781A46054B1B681344034A1360A7
:102D000000BFBD4680BC7047400000201403002077
:102D100080B400AF024B1B681846BD4680BC7047AC
:102D20001403002080B584B000AF7860FFF7F0FF97
:102D3000B8607B68FB60FB68B3F1FF3F05D00A4BCE
:102D40001B781A46FB681344FB6000BFFFF7E0FFE7
:102D50000246BB68D31AFA689A42F7D800BF00BF90
:102D60001037BD4680BD00BF4000002080B485B054
:102D700000AF78607B6803F00703FB600C4BDB68F7
:102D8000BB60BA684FF6FF031340BB60FB681A02D2
:102D9000BB68134343F0BF6343F40033BB60044A92
:102DA000BB68D36000BF1437BD4680BC704700BF0E
:102DB00000ED00E080B400AF044BDB681B0A03F0B9
:102DC00007031846BD4680BC704700BF00ED00E019
:102DD00080B483B000AF03463960FB7197F90730C8
:102DE000002B0ADB3B68DAB20C4997F90730120175
:102DF000D2B20B4483F800230AE03B68DAB20849F8
:102E0000FB7903F00F03043B1201D2B20B441A7694
:102E100000BF0C37BD4680BC704700BF00E100E03A
:102E200000ED00E080B489B000AFF860B9607A606E
:102E3000FB6803F00703FB61FB69C3F10703042B85
:102E400028BF0423BB61FB690433062B02D9FB694D
:102E5000033B00E000237B614FF0FF32BB6902FAC5
:102E600003F3DA43BB681A407B699A404FF0FF31A5
:102E70007B6901FA03F3D9437B680B40134318467F
:102E80002437BD4680BC704780B582B000AF786003
:102E90007B68013BB3F1807F01D301230FE00A4A35
:102EA0007B68013B53600F214FF0FF30FFF790FF2D
:102EB000054B00229A60044B07221A600023184633
:102EC0000837BD4680BD00BF10E000E080B582B08D
:102ED00000AF78607868FFF749FF00BF0837BD464C
:102EE00080BD80B586B000AF0346B9607A60FB73E1
:102EF00000237B61FFF75EFF78617A68B9687869C3
:102F0000FFF790FF024697F90F3011461846FFF77A
:102F10005FFF00BF1837BD4680BD80B582B000AFEF
:102F200078607868FFF7B0FF034618460837BD465B
:102F300080BD000080B48BB000AF786039600023A2
:102F40007B6200233B6269E101227B6A02FA03F3A0
:102F5000FB613B681B68FA691340BB61BA69FB6996
:102F60009A4240F058813B685B689A4A93425ED02F
:102F7000984A934275D8984A934258D0964A9342B9
:102F80006FD8964A934252D0944A934269D8944A51
:102F900093424CD0924A934263D8924A934246D08D
:102FA000904A93425DD8122B2AD8122B59D801A2ED
:102FB00052F823F02F300008093000081B300008B9
:102FC0005D3000086330000863300008633000089B
:102FD0006330000863300008633000086330000885
:102FE0006330000863300008633000086330000875
:102FF00063300008633000081130000825300008F5
:10300000794A934213D02CE03B68DB683B6229E0AD
:103010003B68DB6804333B6224E03B68DB680833D1
:103020003B621FE03B68DB680C333B621AE03B68A5
:103030009B68002B02D104233B6213E03B689B6832
:10304000012B05D108233B627B68FA691A6109E00C
:1030500008233B627B68FA695A6103E000233B6204
:1030600000E000BFBB69FF2B01D87B6801E07B68F3
:1030700004337B61BB69FF2B02D87B6A9B0002E0B3
:103080007B6A083B9B003B617B691A680F213B69A7
:1030900001FA03F3DB431A40396A3B6901FA03F38F
:1030A0001A437B691A603B685B6803F08053002B0E
:1030B00000F0B1804D4B9B694C4A43F00103936192
:1030C0004A4B9B6903F00103BB60BB68484A7B6ABB
:1030D0009B08023352F82330FB607B6A03F0030342
:1030E0009B000F2202FA03F3DB43FA681340FB60F4
:1030F0007B68404A934213D07B683F4A93420DD08D
:103100007B683E4A934207D07B683D4A934201D197
:10311000032306E0042304E0022302E0012300E08D
:1031200000237A6A02F0030292009340FA68134384
:10313000FB602F497B6A9B080233FA6841F8232021
:103140003B685B6803F48033002B06D02D4B1A6874
:103150002C49BB6913430B6006E02A4B1A68BB6914
:10316000DB43284913400B603B685B6803F4003382
:10317000002B06D0234B5A682249BB6913434B608E
:1031800006E0204B5A68BB69DB431E4913404B6085
:103190003B685B6803F48013002B06D0194B9A68D8
:1031A0001849BB6913438B6006E0164B9A68BB69EC
:1031B000DB43144913408B603B685B6803F40013E6
:1031C000002B21D00F4BDA680E49BB691343CB604B
:1031D00021E000BF0000321000003110000022107A
:1031E0000000211000001210000011100010024019
:1031F0000000014000080140000C014000100140A7
:1032000000140140000401400B4BDA68BB69DB434A
:1032100009491340CB607B6A01337B623B681A68C3
:103220007B6A22FA03F3002B7FF48EAE00BF00BF4F
:103230002C37BD4680BC70470004014080B485B087
:1032400000AF78600B467B807B689A687B88134070
:10325000002B02D00123FB7301E00023FB73FB7BF7
:1032600018461437BD4680BC704780B483B000AFA9
:1032700078600B467B8013467B707B78002B03D0F5
:103280007A887B681A6103E07B881A047B681A617C
:1032900000BF0C37BD4680BC7047000080B584B0CD
:1032A00000AF78607B68002B01D101231BE17B68B4
:1032B00093F83D30DBB2002B06D17B68002283F807
:1032C0003C207868FFF702FB7B68242283F83D20CE
:1032D0007B681B681A687B681B6822F001021A6011
:1032E00001F0C4FCF8607B685B68814A934207D8B0
:1032F000FB68804A934294BF01230023DBB206E0BF
:10330000FB687D4A934294BF01230023DBB2002B6C
:1033100001D00123E7E0FB68784AA2FB03239B0C62
:10332000BB607B681B685B6823F03F017B681B68A0
:10333000BA680A435A607B681B681B6A23F03F0126
:103340007B685B686A4A934202D8BB68013309E034
:10335000BB684FF4967202FB03F3694AA2FB032396
:103360009B0901337A6812680B4313627B681B6800
:10337000DB6923F44F4222F0FF027B685B685C4903
:103380008B4219D8FB68591E7B685B685B00B1FBF8
:10339000F3F3591C40F6FC730B40002B0AD0FB687A
:1033A000591E7B685B685B00B1FBF3F30133C3F329
:1033B0000B0351E004234FE07B689B68002B11D185
:1033C000FB68581E7B6859680B465B000B44B0FBDA
:1033D000F3F30133C3F30B03002B0CBF01230023D2
:1033E000DBB212E0FB68581E7B6859680B469B00F5
:1033F0000B4499000B44B0FBF3F30133C3F30B030D
:10340000002B0CBF01230023DBB2002B01D00123D2
:1034100022E07B689B68002B0ED1FB68581E7B68FE
:1034200059680B465B000B44B0FBF3F30133C3F365
:103430000B0343F400430FE0FB68581E7B68596898
:103440000B469B000B4499000B44B0FBF3F3013394
:10345000C3F30B0343F44043796809681343CB611A
:103460007B681B681B6823F0C0017B68DA697B6896
:103470001B6A1A437B681B680A431A607B681B68D7
:103480009B6823F4034323F0FF037A6811697A6889
:10349000D26811437A6812680B4393607B681B689B
:1034A000DB6823F0FF017B685A697B689B691A43DC
:1034B0007B681B680A43DA607B681B681A687B6854
:1034C0001B6842F001021A607B6800221A647B6864
:1034D000202283F83D207B6800221A637B6800224B
:1034E00083F83E20002318461037BD4680BD00BF3C
:1034F000A08601007F841E00FF083D0083DE1B4381
:10350000D34D621080B588B002AFF8607A601A4679
:103510000B467B8113463B81FFF7FAFB7861FB6822
:1035200093F83D30DBB2202B40F0E0807B690093C4
:10353000192301227049F86800F0E8FD0346002BCA
:1035400001D00223D3E0FB6893F83C30012B01D17A
:103550000223CCE0FB68012283F83C20FB681B6857
:103560001B6803F00103012B07D0FB681B681A6876
:10357000FB681B6842F001021A60FB681B681A684E
:10358000FB681B6822F400621A60FB68212283F842
:103590003D20FB68102283F83E20FB6800221A645D
:1035A000FB687A685A62FB683A895A85FB685B8DCA
:1035B0009AB2FB681A85FB68504ADA6279897B699E
:1035C0003A6AF86800F0D2FB0346002B01D00123D1
:1035D0008DE000233B61FB681B685B693B61FB6816
:1035E0001B689B693B613B6966E07A69396AF868E8
:1035F00000F062FE0346002B0DD0FB681B6C042B11
:1036000007D1FB681B681A68FB681B6842F40072EC
:103610001A6001236BE0FB685B6A1A78FB681B6821
:103620001A61FB685B6A5A1CFB685A62FB685B8D17
:103630009BB2013B9AB2FB685A85FB681B8D013B2C
:103640009AB2FB681A85FB681B685B6903F0040388
:10365000042B1BD1FB681B8D002B17D0FB685B6A0A
:103660001A78FB681B681A61FB685B6A5A1CFB6866
:103670005A62FB685B8D9BB2013B9AB2FB685A852C
:10368000FB681B8D013B9AB2FB681A857A69396A1F
:10369000F86800F052FE0346002B0DD0FB681B6C4F
:1036A000042B07D1FB681B681A68FB681B6842F48F
:1036B00000721A6001231AE0FB681B8D002B94D165
:1036C000FB681B681A68FB681B6842F400721A608A
:1036D000FB68202283F83D20FB68002283F83E200F
:1036E000FB68002283F83C20002300E002231846F8
:1036F0001837BD4680BD00BF020010000000FFFF6C
:1037000080B588B002AFF860084611461A460346F5
:103710007B810B463B811346FB80FFF7F9FA78610A
:10372000FB6893F83D30DBB2202B40F0D9807B69F9
:103730000093192301226D49F86800F0E7FC034665
:10374000002B01D00223CCE0FB6893F83C30012B26
:1037500001D10223C5E0FB68012283F83C20FB680D
:103760001B681B6803F00103012B07D0FB681B6873
:103770001A68FB681B6842F001021A60FB681B684C
:103780001A68FB681B6822F400621A60FB68212239
:1037900083F83D20FB68402283F83E20FB6800222E
:1037A0001A64FB683A6A5A62FB68BA8C5A85FB68ED
:1037B0005B8D9AB2FB681A85FB684D4ADA62F8881D
:1037C0003A8979897B690193BB6A00930346F8685B
:1037D00000F042FB0346002B52D0012381E07A69BE
:1037E000B96AF86800F068FD0346002B0DD0FB684D
:1037F0001B6C042B07D1FB681B681A68FB681B68ED
:1038000042F400721A6001236BE0FB685B6A1A786D
:10381000FB681B681A61FB685B6A5A1CFB685A628A
:10382000FB681B8D013B9AB2FB681A85FB685B8DB8
:103830009BB2013B9AB2FB685A85FB681B685B69C7
:1038400003F00403042B1BD1FB681B8D002B17D046
:10385000FB685B6A1A78FB681B681A61FB685B6A25
:103860005A1CFB685A62FB681B8D013B9AB2FB68CD
:103870001A85FB685B8D9BB2013B9AB2FB685A8547
:10388000FB681B8D002BAAD17A69B96AF86800F031
:1038900054FD0346002B0DD0FB681B6C042B07D195
:1038A000FB681B681A68FB681B6842F400721A60A8
:1038B000012316E0FB681B681A68FB681B6842F46A
:1038C00000721A60FB68202283F83D20FB6800220A
:1038D00083F83E20FB68002283F83C20002300E0B0
:1038E000022318461837BD4680BD00BF02001000F5
:1038F0000000FFFF80B58CB002AFF86008461146AB
:103900001A4603467B810B463B811346FB80FFF73B
:10391000FFF97862FB6893F83D30DBB2202B40F072
:103920001E827B6A0093192301228249F86800F005
:10393000EDFB0346002B01D0022311E2FB6893F854
:103940003C30012B01D102230AE2FB68012283F8FB
:103950003C20FB681B681B6803F00103012B07D0A8
:10396000FB681B681A68FB681B6842F001021A605A
:10397000FB681B681A68FB681B6822F400621A6007
:10398000FB68222283F83D20FB68402283F83E201A
:10399000FB6800221A64FB683A6B5A62FB68BA8EB5
:1039A0005A85FB685B8D9AB2FB681A85FB68624A90
:1039B000DA62F8883A8979897B6A0193BB6B009354
:1039C0000346F86800F0D2FA0346002B01D0012329
:1039D000C6E1FB681B8D002B13D100233B62FB6803
:1039E0001B685B693B62FB681B689B693B623B6AC7
:1039F000FB681B681A68FB681B6842F400721A6057
:103A00009AE1FB681B8D012B1ED1FB681B681A68AD
:103A1000FB681B6822F480621A6072B600BF002344
:103A2000FB61FB681B685B69FB61FB681B689B694A
:103A3000FB61FB69FB681B681A68FB681B6842F442
:103A400000721A6062B635E0FB681B8D022B1ED136
:103A5000FB681B681A68FB681B6842F400621A6006
:103A600072B600BF0023BB61FB681B685B69BB616A
:103A7000FB681B689B69BB61BB69FB681B681A68B4
:103A8000FB681B6822F480621A6062B612E0FB6871
:103A90001B681A68FB681B6842F480621A60002386
:103AA0007B61FB681B685B697B61FB681B689B69CA
:103AB0007B617B6940E1FB681B8D032B00F2F98081
:103AC000FB681B8D012B23D17A6AB96BF86800F073
:103AD00075FC0346002B01D0012341E1FB681B6804
:103AE0001A69FB685B6AD2B21A70FB685B6A5A1C7F
:103AF000FB685A62FB681B8D013B9AB2FB681A8512
:103B0000FB685B8D9BB2013B9AB2FB685A8513E15F
:103B1000FB681B8D022B52D17B6A0093BB6B00228A
:103B20000649F86800F0F2FA0346002B08D001239A
:103B300016E100BF020010000000FFFF04000100BA
:103B400072B600BFFB681B681A68FB681B6842F40A
:103B500000721A60FB681B681A69FB685B6AD2B264
:103B60001A70FB685B6A5A1CFB685A62FB681B8D03
:103B7000013B9AB2FB681A85FB685B8D9BB2013BE7
:103B80009AB2FB685A8562B600BFFB681B681A6967
:103B9000FB685B6AD2B21A70FB685B6A5A1CFB68EE
:103BA0005A62FB681B8D013B9AB2FB681A85FB6861
:103BB0005B8D9BB2013B9AB2FB685A85BCE07B6A85
:103BC0000093BB6B00226849F86800F09FFA034637
:103BD000002B01D00123C3E0FB681B681A68FB6857
:103BE0001B6822F480621A6072B600BFFB681B6813
:103BF0001A69FB685B6AD2B21A70FB685B6A5A1C6E
:103C0000FB685A62FB681B8D013B9AB2FB681A8500
:103C1000FB685B8D9BB2013B9AB2FB685A857B6A5D
:103C20000093BB6B00225049F86800F06FFA03461E
:103C3000002B01D0012393E0FB681B681A68FB6826
:103C40001B6842F400721A60FB681B681A69FB6803
:103C50005B6AD2B21A70FB685B6A5A1CFB685A62D4
:103C6000FB681B8D013B9AB2FB681A85FB685B8D74
:103C70009BB2013B9AB2FB685A8562B600BFFB68F3
:103C80001B681A69FB685B6AD2B21A70FB685B6AD0
:103C90005A1CFB685A62FB681B8D013B9AB2FB6899
:103CA0001A85FB685B8D9BB2013B9AB2FB685A8513
:103CB00042E07A6AB96BF86800F080FB0346002B9B
:103CC00001D001234CE0FB681B681A69FB685B6A42
:103CD000D2B21A70FB685B6A5A1CFB685A62FB68B6
:103CE0001B8D013B9AB2FB681A85FB685B8D9BB20A
:103CF000013B9AB2FB685A85FB681B685B6903F05D
:103D00000403042B18D1FB681B681A69FB685B6A03
:103D1000D2B21A70FB685B6A5A1CFB685A62FB6875
:103D20001B8D013B9AB2FB681A85FB685B8D9BB2C9
:103D3000013B9AB2FB685A85FB681B8D002B7FF410
:103D4000BAAEFB68202283F83D20FB68002283F88E
:103D50003E20FB68002283F83C20002300E0022381
:103D600018462837BD4680BD0400010080B588B0E4
:103D700002AFF8607A603B600B467B81FB68DB6AD0
:103D80007B617B69082B06D07B69012B03D07B69A3
:103D900013F5803F08D1FB681B681A68FB681B6835
:103DA00042F480721A600BE0FB681B6B122B07D188
:103DB000FB681B681A68FB681B6842F480721A6013
:103DC0003B6800937B6800224FF00111F86800F017
:103DD0009DF90346002B01D0012335E0FB681B69E8
:103DE000B3F5804F08D17B89DBB21A46FB681B68AC
:103DF00002F0FE021A611BE07B89DB11DBB203F0EB
:103E00000603DBB263F00F03DAB2FB681B681A61CA
:103E10003B687A680E49F86800F0CFF90346002B3A
:103E200001D0012310E07B89DAB2FB681B681A61BC
:103E30003B687A680749F86800F0BFF90346002B31
:103E400001D0012300E0002318461837BD4680BD8D
:103E5000080001000200010080B588B002AFF860E0
:103E6000084611461A4603467B810B463B811346A2
:103E7000FB80FB681B681A68FB681B6842F4807251
:103E80001A607B6A00933B6A00224FF00111F868C8
:103E900000F03CF90346002B01D001235FE07B8951
:103EA000DBB21A46FB681B6802F0FE021A617B6AED
:103EB0003A6A2D49F86800F080F90346002B01D0DA
:103EC00001234CE000237B61FB681B685B697B611D
:103ED000FB681B689B697B617B697A6A396AF86851
:103EE00000F0EAF90346002B0DD0FB681B6C042B95
:103EF00007D1FB681B681A68FB681B6842F40072F4
:103F00001A6001232BE0FB88012B05D13B89DAB233
:103F1000FB681B681A6121E03B891B0A9BB2DAB27D
:103F2000FB681B681A617A6A396AF86800F0C4F99C
:103F30000346002B0DD0FB681B6C042B07D1FB68DC
:103F40001B681A68FB681B6842F400721A60012340
:103F500005E03B89DAB2FB681B681A61002318464A
:103F60001837BD4680BD00BF0200010080B588B093
:103F700002AFF860084611461A4603467B810B469D
:103F80003B811346FB80FB681B681A68FB681B6853
:103F900042F480621A60FB681B681A68FB681B6841
:103FA00042F480721A607B6A00933B6A00224FF0F1
:103FB0000111F86800F0AAF80346002B01D0012394
:103FC0009EE07B89DBB21A46FB681B6802F0FE02AA
:103FD0001A617B6A3A6A4C49F86800F0EEF80346C9
:103FE000002B01D001238BE000237B61FB681B6861
:103FF0005B697B61FB681B689B697B617B697A6A93
:10400000396AF86800F058F90346002B0DD0FB68B8
:104010001B6C042B07D1FB681B681A68FB681B68C4
:1040200042F400721A6001236AE0FB88012B05D17B
:104030003B89DAB2FB681B681A6121E03B891B0AE5
:104040009BB2DAB2FB681B681A617A6A396AF8684F
:1040500000F032F90346002B0DD0FB681B6C042BDB
:1040600007D1FB681B681A68FB681B6842F4007282
:104070001A60012344E03B89DAB2FB681B681A61CD
:104080007A6A396AF86800F017F90346002B0DD0F8
:10409000FB681B6C042B07D1FB681B681A68FB6864
:1040A0001B6842F400721A60012329E0FB681B6858
:1040B0001A68FB681B6842F480721A607B6A00937E
:1040C0003B6A00224FF00111F86800F01FF8034628
:1040D000002B01D0012313E07B89DBB243F0010305
:1040E000DAB2FB681B681A617B6A3A6A0649F868AB
:1040F00000F063F80346002B01D0012300E0002309
:1041000018461837BD4680BD0200010080B584B056
:1041100000AFF860B9603B601346FB7125E03B6877
:10412000B3F1FF3F21D0FEF7F3FD0246BB69D31A7E
:104130003A689A4202D33B68002B16D1FB680022F2
:104140001A63FB68202283F83D20FB68002283F875
:104150003E20FB681B6C43F02002FB681A64FB687E
:10416000002283F83C20012323E0BB681B0CDBB258
:10417000012B0DD1FB681B685B69DA43BB681340F8
:104180009BB2002B0CBF01230023DBB21A460CE0CC
:10419000FB681B689B69DA43BB6813409BB2002B2A
:1041A0000CBF01230023DBB21A46FB799A42B6D03A
:1041B000002318461037BD4680BD80B584B000AFDF
:1041C000F860B9607A603B6051E0FB681B685B692E
:1041D00003F48063B3F5806F23D1FB681B681A6812
:1041E000FB681B6842F400721A60FB681B686FF47E
:1041F00080625A61FB6800221A63FB68202283F800
:104200003D20FB68002283F83E20FB681B6C43F0D6
:104210000402FB681A64FB68002283F83C20012337
:1042200046E07B68B3F1FF3F21D0FEF771FD024607
:104230003B68D31A7A689A4202D37B68002B16D166
:10424000FB6800221A63FB68202283F83D20FB688C
:10425000002283F83E20FB681B6C43F02002FB68C1
:104260001A64FB68002283F83C20012320E0BB682D
:104270001B0CDBB2012B0CD1FB681B685B69DA43BA
:10428000BB6813409BB2002B14BF01230023DBB299
:104290000BE0FB681B689B69DA43BB6813409BB269
:1042A000002B14BF01230023DBB2002B8DD1002390
:1042B00018461037BD4680BD80B584B000AFF860A9
:1042C000B9607A602DE0F86800F0CEF80346002B64
:1042D00001D001232DE0BB68B3F1FF3F21D0FEF7F1
:1042E00017FD02467B68D31ABA689A4202D3BB68AC
:1042F000002B16D1FB6800221A63FB68202283F88A
:104300003D20FB68002283F83E20FB681B6C43F0D5
:104310002002FB681A64FB68002283F83C2001231A
:1043200007E0FB681B685B6903F08003802BCAD140
:10433000002318461037BD4680BD80B584B000AF5D
:10434000F860B9607A602DE0F86800F08DF80346F7
:10435000002B01D001232DE0BB68B3F1FF3F21D03A
:10436000FEF7D6FC02467B68D31ABA689A4202D39B
:10437000BB68002B16D1FB6800221A63FB68202261
:1043800083F83D20FB68002283F83E20FB681B6C0D
:1043900043F02002FB681A64FB68002283F83C208B
:1043A000012307E0FB681B685B6903F00403042B2F
:1043B000CAD1002318461037BD4680BD80B584B0F1
:1043C00000AFF860B9607A6042E0FB681B685B6927
:1043D00003F01003102B19D1FB681B686FF010025B
:1043E0005A61FB6800221A63FB68202283F83D2093
:1043F000FB68002283F83E20FB681A6CFB681A6495
:10440000FB68002283F83C20012329E0FEF780FCB2
:1044100002467B68D31ABA689A4202D3BB68002B63
:1044200016D1FB6800221A63FB68202283F83D2026
:10443000FB68002283F83E20FB681B6C43F02002DF
:10444000FB681A64FB68002283F83C20012307E024
:10445000FB681B685B6903F04003402BB5D1002368
:1044600018461037BD4680BD80B483B000AF786079
:104470007B681B685B6903F48063B3F5806F1BD1B5
:104480007B681B686FF480625A617B6800221A6344
:104490007B68202283F83D207B68002283F83E2041
:1044A0007B681B6C43F004027B681A647B68002203
:1044B00083F83C20012300E0002318460C37BD465A
:1044C00080BC704780B586B000AF78607B68002BF9
:1044D00001D1012372E27B681B6803F00103002B0A
:1044E00000F08780924B5B6803F00C03042B0CD028
:1044F0008F4B5B6803F00C03082B12D18C4B5B686D
:1045000003F48033B3F5803F0BD1894B1B6803F470
:104510000033002B6CD07B685B68002B68D10123D3
:104520004CE27B685B68B3F5803F06D1804B1B682B
:104530007F4A43F4803313602EE07B685B68002B76
:104540000CD17B4B1B687A4A23F480331360784B81
:104550001B68774A23F4802313601DE07B685B6847
:10456000B3F5A02F0CD1724B1B68714A43F4802322
:1045700013606F4B1B686E4A43F4803313600BE08B
:104580006B4B1B686A4A23F480331360684B1B68CB
:10459000674A23F4802313607B685B68002B13D089
:1045A000FEF7B6FB386108E0FEF7B2FB02463B6956
:1045B000D31A642B01D9032300E25D4B1B6803F47B
:1045C0000033002BF0D014E0FEF7A2FB386108E0C6
:1045D000FEF79EFB02463B69D31A642B01D90323E5
:1045E000ECE1534B1B6803F40033002BF0D100E0E7
:1045F00000BF7B681B6803F00203002B63D04C4BA9
:104600005B6803F00C03002B0BD0494B5B6803F095
:104610000C03082B1CD1464B5B6803F48033002B42
:1046200016D1434B1B6803F00203002B05D07B68B7
:104630001B69012B01D00123C0E13D4B1B6823F016
:10464000F8027B685B69DB00394913430B603AE091
:104650007B681B69002B20D0364B01221A60FEF7C5
:1046600057FB386108E0FEF753FB02463B69D31A5B
:10467000022B01D90323A1E12D4B1B6803F0020398
:10468000002BF0D02A4B1B6823F0F8027B685B6993
:10469000DB00274913430B6015E0264B00221A600C
:1046A000FEF736FB386108E0FEF732FB02463B6955
:1046B000D31A022B01D9032380E11D4B1B6803F0A1
:1046C0000203002BF0D17B681B6803F00803002B6A
:1046D0003AD07B689B69002B19D0174B01221A60D6
:1046E000FEF716FB386108E0FEF712FB02463B6955
:1046F000D31A022B01D9032360E10D4B5B6A03F04F
:104700000203002BF0D0012000F0C4FA1CE00A4B99
:1047100000221A60FEF7FCFA38610FE0FEF7F8FAA3
:1047200002463B69D31A022B08D9032346E100BF96
:10473000001002400000424280044242924B5B6AF9
:1047400003F00203002BE9D17B681B6803F004032C
:10475000002B00F0A6800023FB758B4BDB6903F078
:104760008053002B0DD1884BDB69874A43F080537F
:10477000D361854BDB6903F08053BB60BB680123C9
:10478000FB75824B1B6803F48073002B18D17F4BA1
:104790001B687E4A43F480731360FEF7B9FA3861F0
:1047A00008E0FEF7B5FA02463B69D31A642B01D93B
:1047B000032303E1754B1B6803F48073002BF0D0D7
:1047C0007B68DB68012B06D16F4B1B6A6E4A43F096
:1047D000010313622DE07B68DB68002B0CD16A4B70
:1047E0001B6A694A23F001031362674B1B6A664A1E
:1047F00023F0040313621CE07B68DB68052B0CD1FB
:10480000614B1B6A604A43F0040313625E4B1B6AF0
:104810005D4A43F0010313620BE05B4B1B6A5A4A8B
:1048200023F001031362584B1B6A574A23F0040319
:1048300013627B68DB68002B15D0FEF769FA3861DC
:104840000AE0FEF765FA02463B69D31A41F2883264
:10485000934201D90323B1E04B4B1B6A03F00203DF
:10486000002BEED014E0FEF753FA38610AE0FEF7B1
:104870004FFA02463B69D31A41F28832934201D97A
:1048800003239BE0404B1B6A03F00203002BEED195
:10489000FB7D012B05D13C4BDB693B4A23F0805368
:1048A000D3617B68DB69002B00F08780364B5B6847
:1048B00003F00C03082B61D07B68DB69022B46D127
:1048C000334B00221A60FEF723FA386108E0FEF746
:1048D0001FFA02463B69D31A022B01D903236DE06C
:1048E000294B1B6803F00073002BF0D17B681B6A17
:1048F000B3F5803F08D1244B5B6823F400327B681A
:104900009B68214913434B601F4B5B6823F474126F
:104910007B68196A7B685B6A0B431B4913434B60D6
:104920001B4B01221A60FEF7F3F9386108E0FEF72D
:10493000EFF902463B69D31A022B01D903233DE06C
:10494000114B1B6803F00073002BF0D035E0104BC7
:1049500000221A60FEF7DCF9386108E0FEF7D8F9AA
:1049600002463B69D31A022B01D9032326E0064BEA
:104970001B6803F00073002BF0D11EE07B68DB693D
:10498000012B07D1012319E0001002400070004004
:10499000600042420B4B5B68FB60FB6803F48032B3
:1049A0007B681B6A9A4206D1FB6803F470127B682D
:1049B0005B6A9A4201D0012300E0002318461837B1
:1049C000BD4680BD0010024080B584B000AF786065
:1049D00039607B68002B01D10123D0E06A4B1B6852
:1049E00003F007033A689A4210D9674B1B6823F01B
:1049F000070265493B6813430B60634B1B6803F078
:104A000007033A689A4201D00123B8E07B681B682B
:104A100003F00203002B20D07B681B6803F0040323
:104A2000002B05D0594B5B68584A43F4E063536050
:104A30007B681B6803F00803002B05D0534B5B68B1
:104A4000524A43F460535360504B5B6823F0F002CA
:104A50007B689B684D4913434B607B681B6803F080
:104A60000103002B40D07B685B68012B07D1474BCB
:104A70001B6803F40033002B15D101237FE07B6812
:104A80005B68022B07D1414B1B6803F00073002BBE
:104A900009D1012373E03D4B1B6803F00203002B97
:104AA00001D101236BE0394B5B6823F003027B6883
:104AB0005B68364913434B60FEF72AF9F8600AE059
:104AC000FEF726F90246FB68D31A41F28832934278
:104AD00001D9032353E02D4B5B6803F00C027B6884
:104AE0005B689B009A42EBD1274B1B6803F00703DE
:104AF0003A689A4210D2244B1B6823F007022249DD
:104B00003B6813430B60204B1B6803F007033A68B4
:104B10009A4201D0012332E07B681B6803F0040352
:104B2000002B08D0194B5B6823F4E0627B68DB68DC
:104B3000164913434B607B681B6803F00803002B86
:104B400009D0124B5B6823F460527B681B69DB0061
:104B50000E4913434B6000F021F802460B4B5B6893
:104B60001B0903F00F030A49CB5C22FA03F3094A3D
:104B70001360094B1B681846FEF788F80023184697
:104B80001037BD4680BD00BF00200240001002402B
:104B9000107B0008380000203C00002090B48AB050
:104BA00000AF294B3C1D0FCB84E80F0040F20123DE
:104BB0003B800023FB610023BB6100237B62002359
:104BC0007B6100233B62214B5B68FB61FB6903F067
:104BD0000C03042B02D0082B03D02BE01C4B3B62B0
:104BE0002BE0FB699B0C03F00F0328333B4413F8C5
:104BF000243C7B61FB6903F48033002B12D0134B00
:104C00005B685B0C03F0010328333B4413F8283C3A
:104C1000BB617B690E4A03FB02F2BB69B2FBF3F393
:104C20007B6204E07B690B4A02FB03F37B627B6AD5
:104C30003B6202E0064B3B6200BF3B6A18462837E6
:104C4000BD4690BC704700BF007B000800100240CA
:104C500000127A0000093D0080B400AF024B1B68CF
:104C60001846BD4680BC70473800002080B500AFB4
:104C7000FFF7F2FF0246054B5B681B0A03F00703D0
:104C80000349CB5C22FA03F3184680BD00100240B2
:104C9000207B000880B485B000AF78600A4B1B68A9
:104CA0000A4AA2FB03235B0A7A6802FB03F3FB6058
:104CB00000BFFB685A1EFA60002BF9D100BF00BF8D
:104CC0001437BD4680BC704738000020D34D6210B9
:104CD000002B2DE9F0471D46BBBF03F100431D46E5
:104CE00000232D2388B01446B8BF1446129A109E94
:104CF0001370149BDDF84CA023F02008B8F1460F88
:104D000005D0B8F1450F00D10136022300E003239E
:104D100007AA049206AACDE902A2CDE900362246EE
:104D20002B4600F081FEB8F1470F074619D1119BC1
:104D3000DB070ED500EB060900220023204629469A
:104D4000FBF732FE08B1CDF81C903022079B4B4593
:104D50001ED33846079B159ADB1B136008B0BDE8CD
:104D6000F087B8F1460F00EB0609E5D10378302B48
:104D70000AD10022002320462946FBF715FE18B968
:104D8000C6F10106CAF80060DAF800309944D3E7AA
:104D9000591C07911A70D9E7F7B50029B6BF2D2322
:104DA0002B23494209290270437029DD0DF10703C5
:104DB0001D460A27B1FBF7F61A4607FB16143034D6
:104DC00002F8014C0C46632C314603F1FF33F1DC51
:104DD0003031941E03F8011C2346411CAB420AD318
:104DE0000DF109039B1AAC4288BF00230233034430
:104DF000181A03B0F0BD13F8016B01F8016FEDE76D
:104E0000302330318370C170031DF1E72DE9F04F7D
:104E100091B00C46DDF8688016461F46054600F046
:104E2000F5FC036818460893FBF792F900230E93EC
:104E3000D8F800300990073323F0070303F1080284
:104E400094F818A0D4F800B0C8F80020D3E900897D
:104E500029F000430B93CDF828804FF0FF32DDE9B5
:104E60000A01C4E912899C4BFBF7D0FD70BBDDE958
:104E70000A014FF0FF32984BFBF7AAFD30BB00222E
:104E8000002340464946FBF799FD10B12D2384F8D5
:104E90004330924A924BBAF1470F8CBF90469846E6
:104EA00003234FF0000923612BF0040323603346F2
:104EB0002146284600970FAA00F0D4F9013040F0AF
:104EC00090804FF0FF3011B0BDE8F08F42464B4666
:104ED00040464946FBF79AFD48B14B46002BB8BF08
:104EE0002D23804AB8BF84F843307F4BD3E76368F3
:104EF0000AF0DF015A1C3FD10623636000224BF405
:104F00008063236006920EAACDE904A20DAA039243
:104F10000DF13302CDE90132636842460093284621
:104F20004B460A91FFF7D4FE0A99804647290D990E
:104F300028D1C81C02DB6368994240DDAAF1020A4D
:104F40005FFA8AFA5246013904F150000D91FFF7D9
:104F500023FF0E9A81461318012A236102DC22687E
:104F6000D20701D5013323619DF83330002B9ED049
:104F70002D2384F843309AE74729BFD1002BBDD1B8
:104F80000123BAE7BAF1650FDCD9BAF1660F18D17F
:104F9000002963680BDD216113B92268D00702D5AF
:104FA00001330B4423614FF00009A165DCE713B91D
:104FB0002268D20701D50233F4E70123F2E74FF06C
:104FC000670A0E9B994205DB23682161D807EAD561
:104FD0004B1CE7E70029CCBF0122C1F102021344B8
:104FE000E0E723685A0507D423694246314628463C
:104FF000B84701302BD164E7BAF1650F40F2DC808D
:10500000D4E9120100220023FBF7CEFC002833D0A4
:10501000012331462846354AB84701303FF451AFA5
:10502000DDE90D38434502DB2368D8070FD5DDE9FC
:10503000082331462846B84701303FF442AF4FF0CD
:10504000000908F1FF3804F11A0AC84509DC236891
:105050009B0700F10281E0680F9B9842B8BF184699
:1050600031E70123524631462846B84701303FF424
:1050700028AF09F10109E8E70D9B002B38DC01237B
:1050800031462846194AB84701303FF41AAFDDE9E6
:105090000D3959EA030302D12368D907D7D5DDE9D1
:1050A000082331462846B84701303FF40AAF4FF095
:1050B000000A04F11A0B0D9B5B42534501DC4B4681
:1050C00093E701235A4631462846B84701303FF45A
:1050D000F8AE0AF1010AEEE7FFFFEF7F2C7B000834
:1050E000287B0008347B0008307B0008387B0008F0
:1050F000A36DDDF838A05345A8BF5346002B994651
:1051000036DC4FF0000B29EAE97904F11A02A36DAD
:105110000A93A3EB09035B4531DC0D9B9A453ADC0E
:105120002368DA0737D40D9BAAEB03090A9BAAEB85
:1051300003039945A8BF9946B9F1000F33DC4FF03E
:10514000000829EAE97904F11A0B0D9BAAEB030385
:10515000A3EB090343457FF77AAF01235A46314653
:105160002846B84701303FF4ACAE08F10108ECE73F
:10517000424631462846B8470130C2D1A1E6012354
:10518000314628460A92B84701303FF49AAE0A9A4F
:105190000BF1010BBBE73146DDE908232846B84790
:1051A0000130C0D18DE60A9A4B463146284642442A
:1051B000B8470130C3D184E6DDF838A0BAF1010F59
:1051C00001DCDB0736D50123424631462846B84785
:1051D00001303FF476AEDDE9082331462846B84772
:1051E00001303FF46EAED4E91201002200230AF12F
:1051F000FF3AFBF7D9FBC0B9534608F1010231462B
:105200002846B84701300CD15BE601235A463146A7
:105210002846B84701303FF454AE08F10108D045A4
:10522000F3DB4B4604F15002E0E64FF0000804F1D6
:105230001A0BF4E701234246E1E701234A463146CF
:105240002846B84701303FF43CAE08F10108E36856
:105250000F995B1A4345F0DCFDE64FF0000804F1BE
:105260001909F4E72DE9F047164698468A680B6954
:1052700007469342B8BF1346336091F843200C466B
:10528000DDF820900AB1013333602368990642BFEC
:10529000336802333360256815F0060506D104F142
:1052A000190AE36832689B1AAB422BDC94F843304E
:1052B0002268003B18BF0123920630D4414638468D
:1052C00004F14302C847013023D02368226903F068
:1052D0000603042B14BF002533684FF0000608BFF7
:1052E000E56804F11A0408BFED1A54F8123C08BF2F
:1052F00025EAE5759342C4BF9B1AED18B5421AD151
:10530000002008E00123524641463846C847013094
:1053100003D14FF0FF30BDE8F0870135C1E7302001
:10532000E11881F843005A1C94F8451022440233D6
:1053300082F84310C2E70123224641463846C84757
:105340000130E6D00136D9E72DE9FF470F7E9146BF
:10535000782F80460C469A460C9E01F1430207D8EE
:10536000622F0AD8002F00F0D180582F00F0B880AB
:1053700004F1420684F842703AE0A7F16303152B6A
:10538000F6D801A151F823F0E1530008F5530008C5
:1053900071530008715300087153000871530008DD
:1053A000F553000871530008715300087153000849
:1053B00071530008F35400081F540008AD5400084E
:1053C0007153000871530008155500087153000807
:1053D0001F5400087153000871530008B5540008A9
:1053E00033681A1D1B68326004F1420684F84230AB
:1053F00001239CE033682068191D3160060601D541
:105400001D6803E04506FBD5B3F90050002D03DA13
:105410002D236D4284F843300A23584811E0216857
:105420003368080653F8045B02D4490648BFADB29E
:105430006F2F336014BF0A2308235048002184F8DB
:1054400043106668002EA66005DB21682E4321F01C
:10545000040121604BD01646B5FBF3F103FB115755
:10546000C75D06F8017D2F46BB420D46F4D9082BD7
:105470000BD12368DF0708D5236961689942DEBF35
:10548000302306F8013C06F1FF36921B22614B46A1
:1054900021464046CDF800A003AAFFF7E3FE013005
:1054A0004AD14FF0FF3004B0BDE8F087236843F0E5
:1054B000200323607827324884F8457023683168D8
:1054C0001F0651F8045B02D45F0648BFADB23160DD
:1054D000D90744BF43F0200323601DB11023ADE77B
:1054E0002648E9E7236823F020032360F6E7164601
:1054F000BDE733682568181D616930602E061B689A
:1055000001D5196002E06806FBD519800023164614
:105510002361BCE7336800211A1D32601E6862688F
:10552000304600F0EAF908B1801B606063682361CF
:10553000002384F84330AAE73246494640462369AF
:10554000D0470130ADD023689B0713D4E068039B9C
:105550009842B8BF1846A6E701233246494640465E
:10556000D04701309DD00135E36803995B1AAB4207
:10557000F2DCEBE7002504F11906F5E73A7B0008B9
:105580004B7B0008002310B50446C0E90033C0E996
:105590000433836081814366C28183611946082296
:1055A0005C3000F02AF90D4B246263620C4BA3625D
:1055B0000C4BE3620C4B23630C4B9C4206D003F173
:1055C0006802944202D0D0339C4205D104F15800C5
:1055D000BDE8104000F08EB910BD00BF755700083F
:1055E00097570008CF570008F3570008180300200A
:1055F000024A0349034800F069B800BF4400002094
:10560000717200085400002041680C4B10B599429B
:10561000044601D001F02CFEA168094B994202D04A
:10562000204601F025FEE168064B994204D0204651
:10563000BDE8104001F01CBE10BD00BF18030020E3
:1056400080030020E803002010B50B4B0B4C0C4AE4
:1056500020461A6004210022FFF794FF04F168003D
:1056600001220921FFF78EFF04F1D0000222BDE8DC
:1056700010401221FFF786BF5004002018030020BD
:10568000F1550008014800F036B900BF5904002068
:10569000014800F031B900BF5904002010B504469C
:1056A000FFF7F0FF236A1BB1BDE81040FFF7F0BF22
:1056B000044B2362044B1B68002BF5D1FFF7C4FF9A
:1056C000F2E700BF09560008500400202DE9F84316
:1056D0000746884614460026D4E90195B9F1010928
:1056E00005D52468002CF7D13046BDE8F883AB8996
:1056F000012B07D9B5F90E30013303D029463846BE
:10570000C04706436835E9E70CB430B5184B0C1EAA
:105710001D689DB008DA8B234FF0FF302B601DB061
:10572000BDE8304002B070474FF40273ADF814305A
:105730004FF000031B930CBF234604F1FF33049387
:1057400007934FF6FF7302900690ADF81630284687
:1057500021AB209A02A9019301F00EFC431CBCBFAF
:105760008B232B60002CDAD00022029B1A70D6E724
:105770005000002010B50C46B1F90E1000F06CF886
:105780000028ABBF636DA3891B1823F48053ACBF03
:105790006365A38110BD2DE9F0411F468B89054645
:1057A000DB050C46164605D502230022B1F90E1082
:1057B00000F040F8A389324623F48053A3812846A1
:1057C0003B46B4F90E10BDE8F04100F057B810B5F3
:1057D0000C46B1F90E1000F02DF8431CA38915BF3B
:1057E000606523F4805343F48053A38118BFA381E1
:1057F00010BDB1F90E1000F00DB8034602449342FB
:1058000000D1704703F8011BF9E70000004870471A
:105810009001002038B50023054D044608462B6052
:10582000FDF71BF9431C02D12B6803B1236038BD7F
:105830005404002038B50446084611460022054DA0
:105840002A601A46FDF72DF9431C02D12B6803B1DB
:10585000236038BD5404002038B50446084611467C
:105860000022054D2A601A46FDF7BEF8431C02D1FE
:105870002B6803B1236038BD5404002038B50446BA
:10588000084611460022054D2A601A46FDF7C9F860
:10589000431C02D12B6803B1236038BD540400209F
:1058A000014B1868704700BF5000002070B50026FB
:1058B0000C4D0D4C641BA410A64209D102F074F8E3
:1058C00000260A4D0A4C641BA410A64205D170BDE7
:1058D00055F8043B98470136EEE755F8043B9847E6
:1058E0000136F2E7A47E0008A47E0008A47E00082A
:1058F000A87E0008704770477047034610B5C9B2CC
:1059000002449342184601D1002003E00478013399
:105910008C42F6D110BD2DE9F74F03690C6907469B
:10592000A3427EDB013CA30000F1140501F1140841
:10593000009305EB8403019358F8243055F8242094
:1059400001339A42B2FBF3F608EB84092ED34FF0F1
:10595000000AC446AE46D3465CF8043B98B206FB48
:1059600000A01B0C020C06FB0323DEF8002080B213
:1059700092B2121A5A44DEF800004FEA134A9BB260
:10598000C3EB224303EB104392B242EA0342E145E8
:105990004FEA234B4EF8042BDED2009BEB582BB979
:1059A000019B043B9D421A462FD33C61384601F0CF
:1059B0007FF9002825DB2946002058F8042BD1F870
:1059C00000C01FFA82FE1FFA8CF3A3EB0E03034400
:1059D000120CC2EB234202EB1C429BB243EA02438D
:1059E000C1454FEA224041F8043BE6D255F8242055
:1059F00005EB840322B9043B9D421A460BD33C615C
:105A00000136304603B0BDE8F08F1268043B002A2F
:105A1000CBD1013CC6E71268043B002AEFD1013C20
:105A2000EAE70020EEE700002DE9F04F14461D469E
:105A3000C76997B08146CDE90645239E7FB91020FE
:105A400000F00EFE0246C9F81C0020B9EF21AC4B55
:105A5000AC4801F06DFCC0E901770760C760D9F878
:105A60001C30196859B15A68012393404A608B6011
:105A7000484600F0EBFE0022D9F81C301A602B1EBD
:105A8000AFBF0023012223F000430793A8BF336078
:105A9000DDF81C809C4BB8BF326033EA080312D19A
:105AA00042F20F73229A1360C8F31303234300F0EA
:105AB0005E85249BDFF854A2002B00F060850AF17C
:105AC000030300F05ABDDDE90623CDE90C23DDE92F
:105AD0000C0100220023FAF767FF074658B10123A3
